:100000001FC043C042C041C040C03EC23EC03DC010
:100010003CC03BC03AC039C038C037C036C0000011
:100020000000380000000000370002020202020255
:100030000202020201020408102020041008B30288
:1000400011241FBECFE5D2E0DEBFCDBF10E0A0E699
:10005000B0E0E8E8F5E002C005900D92AA36B107DD
:10006000D9F722E0AAE6B0E001C01D92A634B2079B
:10007000E1F710E0C0E2D0E003C02197FE017CD29E
:10008000CF31D107D1F74AD27DC2BACFB99AC19840
:100090000895CF93DF93A6EEB0E0EC012396FC0128
:1000A000619170E027E030E007C042E04A95F1F747
:1000B000C1982150310978F0AB01022E02C055954C
:1000C00047950A94E2F7C19A40FDEFCFC19800C06E
:1000D0002150310988F7CE17DF0711F71197F9F68C
:1000E000DF91CF9108950F931F93CF93DF9300D0AB
:1000F0001F92CDB7DEB784E188BB84E088BB70E097
:1001000060E040E090E058E4769BFECF5EB98FB1AE
:1001100091111AC08F3FC1F340E070E187FD03C029
:1001200069E091E0F1CF86FF45C085FF46C084FFBE
:1001300047C083FF48C070E882FF03C070E481FDC0
:1001400070E26AE091E0E0CF9F5F691748F0242FEA
:1001500030E035952795422F8723B1F24068D4CF00
:10016000E0913B02F0913C02E830F105D8F4E6540E
:10017000FF4F09942BC006C015C038C052C058C0EC
:1001800072C074C080916200841711F041113DC0AB
:1001900083E090E090933C0280933B0210923A02FD
:1001A000109239020F900F900F90DF91CF911F9115
:1001B0000F91089578E069E0B4CF74E069E0B1CFC1
:1001C00072E069E0AECF71E069E0ABCF81E090E032
:1001D000453541F790933C0280933B020F900F907E
:1001E0000F90DF91CF911F910F910895842F90E090
:1001F0009093380280933702423009F4E0C04330D4
:1002000009F4D1C0413009F4CBC010923C021092E5
:100210003B020F900F900F90DF91CF911F910F91A4
:10022000089540936100473E80F785E090E0B2CFAB
:100230008091390290913A029C012F5F3F4F309399
:100240003A022093390286599F4FFC0140838091E6
:10025000610090E0880F991F2817390709F0A2CF95
:1002600087E090E0B7CF40933602FACF10923C027D
:1002700010923B02809137029091380281309105B3
:1002800009F1029709F08ECF30913602832F98E062
:1002900057E0282F880F27FD85279150D1F7481365
:1002A00081CF80E88CBD315039BD81E088BD83E0CD
:1002B0008ABD89E083BF1CBC84E08DB91EB87894E8
:1002C000F89470CF50916100EAE6F0E0652F70E09D
:1002D000DB01AA0FBB1FA659BF4F80E037E0EA172A
:1002E000FB0751F09191892798E0282F880F27FD6F
:1002F00083279150D1F7F3CF481354CF80916000FA
:10030000581759F07894F89486E690E0C2DE509140
:10031000610050936000652F70E06115710509F46C
:1003200041CFAAE6B0E0660F771F66597F4F8E0176
:100330000C5F1F4F2D913D91C9019695879596951C
:100340008795969587958C7F8983932F987F9A833D
:10035000220F220F220F2B83FE013296482F50E0EE
:1003600087E090E006C022E02A95F1F7C198019756
:1003700070F09A01082E02C0359527950A94E2F78D
:10038000C19A20FDF0CFC19800C0019790F70E17D9
:100390001F0711F08191E2CF6A177B0759F602CF50
:1003A00084E090E017CFE2E4EF93EFE4EF93EFE423
:1003B000EF93E4E5EF93E0E0FEE00994F3CE86E00E
:1003C00090E008CFCF93DF9390E080E0CDD0809392
:1003D0006200E4E3F0E02491EAE2F0E0E491EE234D
:1003E000C9F08E2F90E0880F991FFC01EC5DFF4F44
:1003F000C591D491FC01E25EFF4FA591B4919FB7E6
:10040000F8948881E22FE0958E2388838C91E823ED
:10041000EC939FBFE8E3F0E02491EEE2F0E0E4919A
:10042000EE23A1F08E2F90E0880F991FFC01EC5D68
:10043000FF4FA591B491FC01E25EFF4F859194912D
:100440008FB7F894EC91E22BEC938FBF8091620010
:100450008F3FB9F086E690E01CDE80E88CBD8FEC23
:1004600089BD81E088BD83E08ABD89E083BF1CBC73
:1004700084E08DB91EB87894F894F894DF91CF9108
:10048000089583E690E0E8CF1F920F920FB60F9287
:1004900011242F933F938F939F93AF93BF9380919A
:1004A000420290914302A0914402B09145023091E2
:1004B000410223E0230F2D3758F50196A11DB11DF0
:1004C000209341028093420290934302A0934402FE
:1004D000B093450280913D0290913E02A0913F026F
:1004E000B09140020196A11DB11D80933D029093F1
:1004F0003E02A0933F02B0934002BF91AF919F9103
:100500008F913F912F910F900FBE0F901F901895D4
:1005100026E8230F0296A11DB11DD2CF78948AB58B
:1005200082608ABD8AB581608ABD83B7826083BFDD
:1005300083B7816083BF89B7826089BF80B78260DB
:1005400080BF80B7816080BF329A319A309A379AE3
:100550008CB580648CBD36DFC0E0D0E0C4DD209770
:10056000E9F34EDDFBCF92CDE199FECF9FBB8EBB71
:10057000E09A99278DB30895EE0FFF1F0590F4912F
:08058000E02D0994F894FFCF6F
:0A05880008080100FF000000000059
:00000001FF
