:100000001FC043C042C041C040C02AC23EC03DC024
:100010003CC03BC03AC039C038C037C036C0000011
:100020000000380000000000370002020202020255
:1000300002020202010204081020200410088402B7
:1000400011241FBECFE5D2E0DEBFCDBF10E0A0E699
:10005000B0E0EEE2F5E002C005900D92AA36B107DD
:10006000D9F722E0AAE6B0E001C01D92A734B2079A
:10007000E1F710E0C0E2D0E003C02197FE014FD2CB
:10008000CF31D107D1F736D240C2BACFB99AC19891
:10009000089578948AB582608ABD8AB581608ABDE8
:1000A00083B7826083BF83B7816083BF89B7826073
:1000B00089BF80B7826080BF80B7816080BF329A7D
:1000C000319A309A379A089508958CB580648CBD22
:1000D0000895CF93DF93A6EEB0E0EC012396FC01E8
:1000E000619170E027E030E007C042E04A95F1F707
:1000F000C1982150310978F0AB01022E02C055950C
:1001000047950A94E2F7C19A40FDEFCFC19800C02D
:100110002150310988F7CE17DF0711F71197F9F64B
:10012000DF91CF910895FC01680F791F80E027E0EF
:100130006E177F0751F09191892798E0382F880F2B
:1001400037FD82279150D1F7F3CF0895FF920F9397
:100150001F93CF93DF9300D01F92CDB7DEB72091CE
:100160003C0230913D020CB407FC09C0B099FECFAF
:1001700080916A0082BF87E48EB980E88CBD769B4F
:10018000FECF1CBC80B3B09BFECF2630310549F0BA
:10019000B099FECF90916A0092BF97E49EB990E823
:1001A0009CBD10E080FD10E881FD106482FD1062AE
:1001B00083FD106184FD186085FD146086FD12606A
:1001C00087FD1160E0913C02F0913D02E730F105BE
:1001D000C8F4E451FF4F099452C057C05FC003C038
:1001E00071C019C021C010936100173E08F064C0AF
:1001F00084E090E090933D0280933C0210923B0299
:1002000010923A020F900F900F90DF91CF911F91B3
:100210000F91FF9008951093370286E090E090933D
:100220003D0280933C02EECF10923D0210923C02C0
:1002300080913802909139028130910509F464C0AF
:10024000029701F761E070E087E392E06CDF8113D1
:10025000D9CF8091370290E89CBD9FEF980F99BD50
:1002600091E098BD93E09ABD99E093BF94E09DB969
:100270001EB890E09595879580936A00C3CF81E082
:1002800090E0153509F0BECFCACF8091620081178A
:1002900011F0111130C082E090E0ACCF812F90E0DE
:1002A0009093390280933802123009F490C01330D1
:1002B00009F481C0113029F110923D0210923C02E4
:1002C0001CBCA0CF80913A0290913B029C012F5F11
:1002D0003F4F30933B0220933A0285599F4FFC01D8
:1002E00010838091610090E0880F991F28173907CB
:1002F00009F088CF92CF1CBC10923D0210923C02B4
:1003000081CF83E090E08BCFF09061006F2D70E0A3
:10031000660F771F8BE690E006DF811373CF0091A5
:100320006000F01631F07894F89400916100009329
:10033000600010E00115110509F464CFABE6B0E0F0
:10034000000F111F05591F4FBE016C5F7F4F8D912C
:100350009D91AC015695479556954795569547956D
:100360004C7F4983987F9A83880F880F880F8B83EF
:10037000FE01329650E087E090E006C022E02A9528
:10038000F1F7C198019770F09A01082E02C03595D7
:1003900027950A94E2F7C19A20FDF0CFC19800C0DA
:1003A000019790F76E177F0711F04191E3CF0A177D
:1003B0001B0769F627CFE2E4EF93EFE4EF93EFE456
:1003C000EF93E4E5EF93E0E0FEE009941BCF85E0D6
:1003D00090E025CFCF93DF9390E080E098D080939A
:1003E0006200E4E3F0E02491EAE2F0E0E491EE233D
:1003F000C9F08E2F90E0880F991FFC01EC5DFF4F34
:10040000C591D491FC01E25EFF4FA591B4919FB7D5
:10041000F8948881E22FE0958E2388838C91E823DD
:10042000EC939FBF809162008F3FB9F083E690E02C
:1004300050DE80E88CBD8FE489BD81E088BD83E01B
:100440008ABD89E083BF84E08DB91EB888E28093BD
:100450006A00F894DF91CF91089586E690E0E8CFA6
:100460001F920F920FB60F9211242F933F938F93E9
:100470009F93AF93BF938091430290914402A091C8
:100480004502B09146023091420223E0230F2D37FE
:1004900058F50196A11DB11D20934202809343029D
:1004A00090934402A0934502B093460280913E028D
:1004B00090913F02A0914002B09141020196A11D8E
:1004C000B11D80933E0290933F02A0934002B093EF
:1004D0004102BF91AF919F918F913F912F910F90CA
:1004E0000FBE0F901F90189526E8230F0296A11DAE
:1004F000B11DD2CFCEDDE9DD6DDFC0E0D0E026DE7C
:100500002097E9F37DDDFBCFC1CDF8940EC0E199D2
:10051000FECF9FBB8EBBE09A99278DB30895EE0F57
:0E052000FF1F0590F491E02D0994F894FFCF91
:0A052E0008080100000000FF0000B3
:00000001FF
