:100000001FC043C042C041C040C038C23EC03DC016
:100010003CC03BC03AC039C038C037C036C0000011
:100020000000380000000000370002020202020255
:1000300002020202010204081020200410089202A9
:1000400011241FBECFE5D2E0DEBFCDBF10E0A0E699
:10005000B0E0EAE4F5E002C005900D92AA36B107DF
:10006000D9F722E0AAE6B0E001C01D92A734B2079A
:10007000E1F710E0C0E2D0E003C02197FE015DD2BD
:10008000CF31D107D1F744D24EC2BACFB99AC19875
:10009000089578948AB582608ABD8AB581608ABDE8
:1000A00083B7826083BF83B7816083BF89B7826073
:1000B00089BF80B7826080BF80B7816080BF329A7D
:1000C000319A309A379A089508958CB580648CBD22
:1000D0000895CF93DF93A6EEB0E0EC012396FC01E8
:1000E000619170E027E030E007C042E04A95F1F707
:1000F000C1982150310978F0AB01022E02C055950C
:1001000047950A94E2F7C19A40FDEFCFC19800C02D
:100110002150310988F7CE17DF0711F71197F9F64B
:10012000DF91CF910895FC01680F791F80E027E0EF
:100130006E177F0751F09191892798E0382F880F2B
:1001400037FD82279150D1F7F3CF0895EF92FF92B8
:100150000F931F93CF93DF9300D01F92CDB7DEB7DD
:1001600020913C0230913D020CB407FC09C0B099CB
:10017000FECF80916A0082BF87E48EB980E88CBD93
:10018000769BFECF1CBC80B3B09BFECF26303105E2
:1001900049F0B099FECF90916A0092BF97E49EB962
:1001A00090E89CBD10E080FD10E881FD106482FDA8
:1001B000106283FD106184FD186085FD146086FD6A
:1001C000126087FD1160E0913C02F0913D02E73042
:1001D000F105C8F4E351FF4F099453C058C060C003
:1001E00003C072C01AC022C010936100173E08F00D
:1001F00065C084E090E090933D0280933C021092B1
:100200003B0210923A020F900F900F90DF91CF9126
:100210001F910F91FF90EF9008951093370286E0A1
:1002200090E090933D0280933C02EDCF10923D020E
:1002300010923C02809138029091390281309105F0
:1002400009F464C00297F9F661E070E087E392E098
:100250006ADF8113D8CF8091370290E89CBD9FEF71
:10026000980F99BD91E098BD93E09ABD99E093BF36
:1002700094E09DB91EB890E09595879580936A00AB
:10028000C2CF81E090E0153509F0BDCFCACF809193
:100290006200811711F0111130C082E090E0ABCF05
:1002A000812F90E09093390280933802123009F444
:1002B0009CC0133009F48DC0113029F110923D0219
:1002C00010923C021CBC9FCF80913A0290913B025D
:1002D0009C012F5F3F4F30933B0220933A02855998
:1002E0009F4FFC0110838091610090E0880F991F5F
:1002F0002817390709F087CF92CF1CBC10923D0216
:1003000010923C0280CF83E090E08BCF009161009F
:10031000E02EF12CB701660F771F8BE690E003DF2C
:10032000811371CF80916000081741F07894F894A0
:100330000091610000936000E02EF12CE114F104C3
:1003400009F461CFEBE6F0E0D701AA0FBB1F8D01E6
:1003500005591F4FBE016C5F7F4F81919191AC0198
:10036000529542954F7045275F7045274E774983D8
:10037000292F26952C772A83880F991F880F991F7C
:10038000880F991F969587958F778B83DE0112963C
:1003900050E087E090E006C022E02A95F1F7C1988E
:1003A000019770F09A01082E02C0359527950A949E
:1003B000E2F7C19A20FDF0CFC19800C0019790F7F5
:1003C0006A177B0711F04D91E3CF0E171F0729F62F
:1003D0001ACFE2E4EF93EFE4EF93EFE4EF93E4E579
:1003E000EF93E0E0FEE009940ECF85E090E019CFB6
:1003F000CF93DF9390E080E098D080936200E4E3B5
:10040000F0E02491EAE2F0E0E491EE23C9F08E2FCF
:1004100090E0880F991FFC01EC5DFF4FC591D491CE
:10042000FC01E25EFF4FA591B4919FB7F8948881DB
:10043000E22FE0958E2388838C91E823EC939FBF75
:10044000809162008F3FB9F083E690E042DE80E861
:100450008CBD8FE489BD81E088BD83E08ABD89E0E1
:1004600083BF84E08DB91EB888E280936A00F89457
:10047000DF91CF91089586E690E0E8CF1F920F922A
:100480000FB60F9211242F933F938F939F93AF93A7
:10049000BF938091430290914402A0914502B09194
:1004A00046023091420223E0230F2D3758F5019682
:1004B000A11DB11D209342028093430290934402F8
:1004C000A0934502B093460280913E0290913F0274
:1004D000A0914002B09141020196A11DB11D8093EF
:1004E0003E0290933F02A0934002B0934102BF911D
:1004F000AF919F918F913F912F910F900FBE0F90D1
:100500001F90189526E8230F0296A11DB11DD2CF8A
:10051000C0DDDBDD6DDFC0E0D0E018DE2097E9F361
:100520006FDDFBCFB3CDF8940EC0E199FECF9FBB3A
:100530008EBBE09A99278DB30895EE0FFF1F0590AB
:0A054000F491E02D0994F894FFCF28
:0A054A0008080100000000FF000097
:00000001FF
