:100000001FC043C042C041C040C054C23EC03DC0FA
:100010003CC03BC03AC039C038C037C036C0000011
:100020000000380000000000370002020202020255
:100030000202020201020408102020041008AE028D
:1000400011241FBECFE5D2E0DEBFCDBF10E0A0E699
:10005000B0E0E2E8F5E002C005900D92AA36B107E3
:10006000D9F722E0AAE6B0E001C01D92A634B2079B
:10007000E1F710E0C0E2D0E003C02197FE0179D2A1
:10008000CF31D107D1F760D26AC2BACFB99AC1983D
:10009000089578948AB582608ABD8AB581608ABDE8
:1000A00083B7826083BF83B7816083BF89B7826073
:1000B00089BF80B7826080BF80B7816080BF329A7D
:1000C000319A309A379A089508958CB580648CBD22
:1000D0000895CF93DF93A6EEB0E0EC012396FC01E8
:1000E000619170E027E030E007C042E04A95F1F707
:1000F000C1982150310978F0AB01022E02C055950C
:1001000047950A94E2F7C19A40FDEFCFC19800C02D
:100110002150310988F7CE17DF0711F71197F9F64B
:10012000DF91CF910895FC01680F791F80E027E0EF
:100130006E177F0751F09191892798E0382F880F2B
:1001400037FD82279150D1F7F3CF0895EF92FF92B8
:100150000F931F93CF93DF9300D01F92CDB7DEB7DD
:1001600084E188BB84E088BB60E050E010E090E070
:1001700048E4769BFECF4EB98FB191111AC08F3FE4
:10018000C1F310E060E187FD03C059E091E0F1CFD9
:1001900086FF46C085FF47C084FF48C083FF49C033
:1001A00060E882FF03C060E481FD60E25AE091E014
:1001B000E0CF9F5F591748F0212F30E03595279504
:1001C000122F8623B1F21068D4CFE0913B02F09158
:1001D0003C02E730F105D0F4E151FF4F099454C0DF
:1001E00005C05CC06FC075C08FC026C08091620022
:1001F000811711F0111161C082E090E090933C02F0
:1002000080933B0210923A02109239020F900F90A5
:100210000F90DF91CF911F910F91FF90EF90089574
:1002200068E059E0B3CF64E059E0B0CF62E059E054
:10023000ADCF61E059E0AACF10923C0210923B0290
:1002400080913702909138028130910509F45FC0A6
:100250000297E1F661E070E086E392E064DF8113EB
:10026000D5CF8091360290E89CBD815089BD81E058
:1002700088BD83E08ABD89E083BF1CBC84E08DB962
:100280001EB87894F894C2CF81E090E0153509F05B
:10029000BDCF90933C0280933B02B8CF812F90E07A
:1002A0009093380280933702123009F48FC01330D4
:1002B00009F492C0113009F48CC010923C021092E3
:1002C0003B02A4CF10936100173EB8F784E090E0A2
:1002D00095CF8091390290913A029C012F5F3F4F58
:1002E00030933A022093390286599F4FFC011083C4
:1002F0008091610090E0880F991F2817390709F055
:1003000085CF86E090E0C5CF10933602FACF0091FA
:100310006100E02EF12CB701660F771F8AE690E0AE
:1003200002DF811373CF80916000081759F0789431
:10033000F89486E690E0CDDE0091610000936000C5
:10034000E02EF12CE114F10409F460CFAAE6B0E04C
:10035000B701660F771F66597F4F8E010C5F1F4FE5
:100360002D913D91C901969587959695879596957E
:1003700087958C7F8983932F987F9A83220F220FF2
:10038000220F2B83FE013296482F50E087E090E049
:1003900006C022E02A95F1F7C198019770F09A0102
:1003A000082E02C0359527950A94E2F7C19A20FDE0
:1003B000F0CFC19800C0019790F70E171F0711F0FA
:1003C0008191E2CF6A177B0759F620CF85E090E054
:1003D00060CF83E090E05DCFE2E4EF93EFE4EF9352
:1003E000EFE4EF93E4E5EF93E0E0FEE009940ECF55
:1003F000CF93DF9390E080E0B4D080936200E4E399
:10040000F0E02491EAE2F0E0E491EE23C9F08E2FCF
:1004100090E0880F991FFC01EC5DFF4FC591D491CE
:10042000FC01E25EFF4FA591B4919FB7F8948881DB
:10043000E22FE0958E2388838C91E823EC939FBF75
:10044000E8E3F0E02491EEE2F0E0E491EE23A1F0A5
:100450008E2F90E0880F991FFC01EC5DFF4FA59156
:10046000B491FC01E25EFF4F859194918FB7F894AF
:10047000EC91E22BEC938FBF809162008F3FB9F03B
:1004800086E690E026DE80E88CBD8FEC89BD81E0B9
:1004900088BD83E08ABD89E083BF1CBC84E08DB940
:1004A0001EB87894F894F894DF91CF91089583E67C
:1004B00090E0E8CF1F920F920FB60F9211242F9366
:1004C0003F938F939F93AF93BF93809142029091FC
:1004D0004302A0914402B09145023091410223E0D1
:1004E000230F2D3758F50196A11DB11D2093410210
:1004F0008093420290934302A0934402B09345023A
:1005000080913D0290913E02A0913F02B091400245
:100510000196A11DB11D80933D0290933E02A093D0
:100520003F02B0934002BF91AF919F918F913F9155
:100530002F910F900FBE0F901F90189526E8230F54
:100540000296A11DB11DD2CFA4DDBFDD51DFC0E0F9
:10055000D0E0FCDD2097E9F353DDFBCF97CDF89495
:100560000EC0E199FECF9FBB8EBBE09A99278DB359
:100570000895EE0FFF1F0590F491E02D0994F89473
:02058000FFCFAB
:0A05820008080100FF00000000005F
:00000001FF
