:101C000000C0112410E0A0E6B0E0E4EBFFE102C068
:101C100005900D92A437B107D9F720E0A4E7B0E012
:101C200001C01D92AC3DB207E1F76BC028B3226042
:101C300038B33D7FFC010396419158E028BB47FF34
:101C400038BB440F07F407F438BB07F407F407F474
:101C500007F45A9599F7E817F90771F70895382F9F
:101C6000FC018FEF9FEF2E2F231B261708F00895FE
:101C70002191822728E0AC014170552796958795E0
:101C8000452B21F041E0842740EA9427215099F721
:101C9000EACFCF93DF9390E896BD24E026BDC39AA8
:101CA000C29ABA9AC29808B2E3E0C0E2DC2FDA9591
:101CB000F1F780FB02F8E695879508BAB9F796BD6B
:101CC00016BCDF91CF9108951F93CF93DF93EC0162
:101CD000162F6EEF610FC3DF9E01210F311DF90139
:101CE0003297808321503109F90190831C0FFE0146
:101CF00021968081CEDF1C13FACFDF91CF911F9107
:101D00000895F8940FB6F894A89581B5886181BDBF
:101D100011BC0FBECFE5D2E0DEBFCDBF06E610E0BE
:101D2000E3E7EE2EE0E0FE2EF80181918F01B1DFB6
:101D3000E016F106C9F780E090E034D1F82EB99AA8
:101D4000DFEF80E690E072DFD150D9F7FFEF29EFA7
:101D500080E0F15020408040E1F700C0000010E03A
:101D600000E0CF2CD12CC601002E02C0959587959E
:101D70000A94E2F780FF03C183E690E057DF0F5F2C
:101D80001F4F0830110579F79FEFE9EFF0E0915010
:101D9000E040F040E1F700C00000D0E08BEDA82E5D
:101DA00080E0B82E90E8E92E24E0C22E30E9932E90
:101DB00042E0842E77247A945DEC652E66E8D62E78
:101DC00073E0572EE4EBF0E081818193AE16BF06FD
:101DD000D9F7E6BCC6BCC098B8982FE280E8B099A5
:101DE000FECF2150F1F721E2B09908948795C8F70A
:101DF0002A95F1F7E6BC16BC8093DB00DF5F90917B
:101E0000B4009F1511F091117FC09091B5009031F1
:101E100009F07AC09091B900903109F075C0D832BC
:101E200008F472C00091DA00182F66E284EB90E0AB
:101E300016DF8017910709F067C08091B600909176
:101E4000B700982789279827813E2BE1920708F051
:101E500099C09C012F713327232B09F093C0009761
:101E600021F47092BA006092BB0050E0BC01607C2B
:101E7000A4E7B0E030E020E0FB01E20FF31FE491C3
:101E8000ED932F5F3F4F20343105B1F7282F261BEC
:101E900030E0E52FF0E0E654FF4F2034310550F4F8
:101EA0004191D901AC58BF4F4C935F5F2F5F3F4FBB
:101EB000503299F7E62FF72FC4E7D0E014D003E0B3
:101EC00007BFE89540E40FD00990199001E007BFE3
:101ED000E89532964250B9F706D0E62FF72F05E085
:101EE00007BFE89506C01091370011701130D9F383
:101EF00008951124850F911D503208F4B7CF68E082
:101F000084EB90E0E1DED0E08091D4008F1511F0F9
:101F1000811158CF4090D50083E0481619F096E023
:101F2000491250CFD83008F44DCF0091DA0010910B
:101F3000DB0066E084ED90E092DE8017910709F007
:101F400041CFE6E04E122CC08091D6009091D70090
:101F5000892B31F5D091D9008091D800D82BC1F4CC
:101F600004ED10E0F8010F5F1F4F808192DEF0E07A
:101F70000C3D1F07B9F7EFE0F0E0099423CF80E6AE
:101F800090E0FCCE9092B5008092B60065E0B8CFAC
:101F9000D092D5005092D60065E084ED90E094DEBA
:101FA000D0E010CFE199FECF9FBB8EBBE09A99277E
:041FB0008DB3089550
:101FB400000000FFFFFF0A0A424F4F544C4F4144B8
:041FC40045520A0078
:0400000300001C00DD
:00000001FF
